:020000040800F2
:1000000000800220C12E0008451400084914000891
:100010004D14000851140008551400080000000099
:10002000000000000000000000000000571400085D
:1000300059140008000000005B1400085D1400085B
:10004000112F0008112F0008112F0008112F000890
:10005000112F0008112F0008112F0008112F000880
:10006000112F0008112F0008112F0008112F000870
:10007000112F0008112F0008112F0008112F000860
:10008000112F0008112F0008112F0008112F000850
:10009000112F0008112F0008112F0008112F000840
:1000A000112F0008112F0008112F0008112F000830
:1000B000112F0008112F000800000000112F000868
:1000C000112F0008112F0008112F0008112F000810
:1000D000112F0008112F0008112F0008112F000800
:1000E000112F0008112F0008000000000000000080
:1000F0000000000000000000000000000000000000
:1001000000000000112F000800000000112F00085F
:10011000112F000800000000112F0008000000004F
:10012000112F0008112F0008112F0008112F0008AF
:10013000112F0008112F0008112F000800000000E7
:10014000112F0008112F0008112F0008112F00088F
:10015000112F0008112F0008112F0008112F00087F
:10016000112F0008112F0008112F000800000000B7
:1001700000000000112F0008000000000000000037
:10018000112F0008112F0008112F0008112F00084F
:08019000112F0008000000001F
:100198000348044B834202D0034B03B1184770470E
:1001A800700000207000002000000000054806498B
:1001B8000B1AD90F01EBA301491002D0034B03B16D
:1001C80018477047700000207000002000000000F1
:1001D80010B5064C237843B9FFF7DAFF044B13B187
:1001E8000448AFF300800123237010BD7000002085
:1001F80000000000142F000808B5044B1BB1044987
:100208000448AFF30080BDE80840CFE700000000D5
:1002180074000020142F0008002200F001B800BF6D
:1002280070B4840746D04C1E002941D0D5B203468D
:1002380002E0611EE4B30C4603F8015B9907F8D1AC
:10024800032C2ED9D5B245EA05250F2C45EA0545DC
:1002580019D9264603F11001103E0F2E41F8105C03
:1002680041F80C5C41F8085C41F8045C01F11001AC
:10027800F2D8A4F1100121F00F0104F00F0410319D
:10028800032C0B440DD91E4621460439032946F890
:10029800045BFAD8211F21F0030104310B4404F058
:1002A80003042CB1D2B21C4403F8012BA342FBD1A6
:1002B80070BC70470C460346C2E7000070B50D4E8F
:1002C8000D4D761BB61006D0002455F8043B0134BA
:1002D8009847A642F9D1094E094D761B02F016FE41
:1002E800B61006D0002455F8043B01349847A642BE
:1002F800F9D170BD18300008183000081C3000080B
:1003080018300008830730B548D0541E002A3FD063
:10031800CAB2034601E0013C3AD303F8012B9D071A
:10032800F9D1032C2DD9CDB245EA05250F2C45EA84
:10033800054536D9A4F1100222F00F0C03F1200E66
:10034800E6444FEA121C03F1100242E9045542E95F
:10035800025510327245F8D10CF1010214F00C0F5D
:1003680003EB021204F00F0C13D0ACF1040323F0DA
:1003780003030433134442F8045B9342FBD10CF0AB
:1003880003042CB1CAB21C4403F8012B9C42FBD1D4
:1003980030BD64461346002CF4D1F9E703461446F1
:1003A800BFE71A46A446E0E72DE9F0410E460746A6
:1003B800002833D083697BB384682F4B9C4237D0A5
:1003C8002E4B9C423FD02E4B9C4208BFFC68A38911
:1003D8001B0731D523697BB33578B0463DB934E086
:1003E80023685A1C22601D7018F8015F6DB3A3685A
:1003F800013B002BA360F3DAA669B34229462246E3
:10040800384601DB0A2DEBD100F044F80130EBD17E
:100418004FF0FF30BDE8F08100F012FBBB69BC680B
:10042800002BCAD1384600F00BFB134B9C42C7D1B6
:100438007C68A3891B07CDD42146384600F08EF886
:100448000028C9D0E4E7BC68C1E7A368013B002BDA
:10045800A36009DA22460A21384600F01BF8013069
:10046800D6D00A20BDE8F08123680A22591C2160F1
:100478001A701046BDE8F081742F0008542F000848
:10048800342F0008024B01461868FFF78DBF00BFE4
:1004980000000020F8B50D461446064608B18369E9
:1004A80043B3254B9C422AD0244B9C4229D0244B51
:1004B8009C4208BFF468A389A269A2601A0722D5E2
:1004C800236903B322686169D31AEDB299422F46B2
:1004D80029DD0133A1680139A160511C2160157023
:1004E80062699A4216D0A389DB0701D50A2D11D07B
:1004F8003846F8BD00F0A4FA0F4B9C42D4D174687A
:10050800D9E7B468D7E72146304600F027F838B96C
:100518002369D7E72146304600F02CF90028E7D0B8
:100528004FF0FF37E4E72146304600F023F9002872
:10053800F6D122680123CDE7742F0008542F000854
:10054800342F000810B4044C03460A4620685DF8AE
:10055800044B1946FFF79EBF000000203C4B70B5C6
:100568001D6806460C460DB1AB69E3B1394B9C4298
:100578001FD0394B9C424DD0384B9C4208BFEC6889
:10058800B4F90C3018079AB219D5216911B312F0D1
:1005980001002FD00020A06060694042A0610029BE
:1005A8002ED0002070BD284600F04AFA294B9C4204
:1005B800DFD16C68B4F90C3018079AB2E5D4D106CB
:1005C8003ED5520728D4216943F00803A3819AB283
:1005D8000029DCD102F42070B0F5007FD7D0214685
:1005E800304600F091FAB4F90C3021699AB212F051
:1005F8000100CFD1950758BF6069A0600029D0D10C
:10060800120658BF0846CDD543F04003A3814FF0EA
:10061800FF3070BDAC68B3E7616B51B104F14402BF
:10062800914204D0304600F0FDFAB4F90C300022B3
:10063800626321690022C4E9001223F02403C3E79E
:10064800092243F0400332604FF0FF30A38170BDB0
:1006580000000020742F0008542F0008342F0008D1
:100668008B891A072DE9F0410C4680463FD44A6829
:10067800002A58DDE66A002E52D00022D8F8005031
:10068800C8F8002013F4805251D10123216A404652
:10069800B047431C5ED0A389E66A5F0705D5636847
:1006A800C01A636B0BB1236CC01A216A024600237F
:1006B8004046B047411C3CD1D8F80030002B38D018
:1006C8001D2B01D0162B4DD123690022C4E900321D
:1006D800616BC8F8005019B304F14403994202D081
:1006E800404600F09FFA00206063BDE8F0810E6983
:1006F800B6B10D680E609A070CBF4B690023AD1B9D
:100708008B600BE02B463246216AA76A4046B84701
:10071800B0F1000CA5EB0C05664413DD002DF1DCEF
:100728000020BDE8F0810A6C002AA3DCF8E7606DC0
:10073800B3E70023636023692360A389DB04C7D57B
:100748006065C5E7A38943F040034FF0FF30A381FC
:10075800BDE8F081D8F80030002B9CD01D2B06D0C6
:10076800162B04D0A38943F04003A381D9E7C8F826
:100778000050D5E738B50B69BBB10D46044608B142
:100788008369B3B10D4B9D4211D00D4B9D4213D0DF
:100798000C4B9D4208BFE568B5F90C302BB12946D2
:1007A8002046BDE83840FFF75BBF002038BD6568CC
:1007B800F2E700F045F9E5E7A568EDE7742F0008D2
:1007C800542F0008342F000838B540B30369044695
:1007D800E3B1174B1D680DB1AB69CBB1154B9C420A
:1007E8000FD0154B9C4221D0144B9C4208BFEC689B
:1007F800B4F90C3053B121462846BDE83840FFF71C
:100808002FBF6C68B4F90C30002BF4D1002038BD30
:10081800284600F015F9074B9C42E2D1F1E7084B56
:1008280008491868BDE8384000F04AB9AC68DFE705
:1008380000000020742F0008542F0008342F0008EF
:10084800302F00087D07000800207047014900F09C
:1008580037B900BF7D0700080020704770B56822CF
:100868004D1E02FB05F50E4605F1740100F03CFA39
:10087800044640B100210C30C4E90016A06005F11F
:100888006802FFF73FFD204670BD00BF274B2DE9EA
:10089800F0411E68B369074653B348364FF0040861
:1008A800D6E90134013B04D51EE05A1C04F1680462
:1008B8001AD0B4F90C50013B002DF6D11C4B6566DB
:1008C800C4E90055C4E90253C4E90455A5610822E6
:1008D800294604F15C00FFF715FDC4E90D55C4E98C
:1008E80012552046BDE8F08135682DB12E46D7E770
:1008F800304600F01FF8D0E74FF4D671384600F0C4
:10090800F3F9044668B10560C0F804800C30294644
:10091800A06025464FF4D072FFF7F4FC34602E46F1
:10092800BEE70C2330603B60DBE700BF302F0008D8
:100938000100FFFF2DE9F84F344B35491A688162F1
:1009480090424FF00003C0E91233036504BF01234E
:1009580083610546FFF79AFF68602846FFF796FF10
:10096800A8602846FFF792FF6F68E8600024042318
:10097800C7E9024308222146C7E90044C7E90444FD
:100988007C66BC6107F15C00FFF7BCFCDFF88CB04B
:10099800AE68DFF88CA0DFF88C90DFF88C801D4BF8
:1009A800C7F828A0C7E9087BC7F82C90C7F830809B
:1009B8000822F360C6E90044C6E904447466B460DA
:1009C800B461214606F15C00FFF79CFCC6E9086BA0
:1009D800C6E90AA9C6F83080EE680F4BF360C6E98D
:1009E8000044C6E904447466B460B4612146082230
:1009F80006F15C00FFF786FC0123C6E9086BC6E92F
:100A08000B98C6F828A0AB61BDE8F88F302F000816
:100A1800550800080900010012000200C90D00086D
:100A2800F10D0008310E0008510E0008024B034971
:100A3800186800F045B800BF302F00087D0700088F
:100A4800836903B976E77047704700BF704700BFF6
:100A5800704700BF704700BF024B0349186800F099
:100A68000FB800BF0000002051080008024B0349DE
:100A7800186800F005B800BF0000002061080008F1
:100A88002DE9F041884600F148070026D7E90154CE
:100A9800013D0FD4A389012B05F1FF3506D9B4F91F
:100AA8000E300133204601D0C04706436B1C04F1C9
:100AB8006804EFD13F68002FE8D13046BDE8F081E7
:100AC8002DE9F8430746884600F148064FF000092B
:100AD800D6E90154013D11D4A389012B05F1FF3555
:100AE80008D9B4F90E300133214603D03846C0473F
:100AF80049EA00096B1C04F16804EDD13668002E40
:100B0800E6D14846BDE8F883F0B58B890C469907CD
:100B180097B007D504F147030122C4E904322360E2
:100B280017B0F0BDB4F90E10002905462DDB6A4652
:100B380000F0B6F9002827DB019E06F470464FF452
:100B48008067A6F50056B6FA86F63946284676092D
:100B580000F0CAF830B3A3891A4AAA6243F08003A6
:100B6800C4E90407A3812060002ED9D0B4F90E107F
:100B7800284600F0ABF90028D2D0A38923F003035C
:100B880043F00103A381CBE7A38913F0800F14BFBF
:100B980040274FF4806739462846002600F0A4F81D
:100BA8000028D8D1B4F90C309A05B9D423F003033E
:100BB80004F1470243F002030121C4E90421A3819F
:100BC8002260ADE75508000870B50C46B1F90E1063
:100BD800002996B016461D4613DB6A4600F060F9F8
:100BE80000280EDB019901F47041A1F50051B1FA1A
:100BF80081F14FF48063490900202960336016B001
:100C080070BDB4F90C3000221B062A6004D54023BD
:100C18000020336016B070BD4FF48063002033604D
:100C280016B070BD002958D030B551F8043C83B0D7
:100C3800002BA1F10404B8BFE418019000F06EF98C
:100C4800284A0198136833B1A3420DD9216804EBEF
:100C5800010C63452FD06360146003B0BDE83040D9
:100C680000F05EB9A34210D81A465B68002BF9D190
:100C7800116802EB010C644519D02FD363605460EE
:100C880003B0BDE8304000F04BB9116802EB010C2D
:100C9800A44516D022D8216804EB010C6345EDD198
:100CA8001D685B682944C4E900135460D5E72368CC
:100CB80019441160D1E71D685B682944C4E9001331
:100CC800CAE7246821445418A3421160C5D1D3E966
:100CD80000432144C2E90013BFE770470C230360B7
:100CE800BBE700BF8C000020F8B5CD1C25F003053C
:100CF80008350C2D38BF0C25002D064623DBA942EC
:100D080021D8254F00F00AF93A6822B3144603E0C7
:100D180063682246FBB11C4623685B1BF8D40B2B87
:100D280015D8636894420CBF3B605360304600F0AE
:100D3800F7F804F10B00231D20F00700C21A01D0B8
:100D48001B1AA350F8BD0C2333600020F8BD2360A4
:100D58001C442560EAE77968C9B12946304600F0A5
:100D68001DF8431C0CD0C41C24F00304A04205D079
:100D7800211A304600F012F8013001D02560D5E77D
:100D88000C233046336000F0CBF80020F8BD304625
:100D980000F004F87860E0E78C00002038B5074DD3
:100DA8000022044608462A6000F0FAF8431C00D0E6
:100DB80038BD2B68002BFBD0236038BD9400002081
:100DC80010B50C46B1F90E1000F0ACF8002803DBA2
:100DD800636D0344636510BDA38923F48053A38125
:100DE80010BD00BF002070472DE9F0410C46B1F955
:100DF8000C101F46CB05054616460BD421F480512E
:100E0800A1813B46B4F90E1032462846BDE8F041B0
:100E180000F01EB8B4F90E100223002200F068F8A2
:100E2800B4F90C10EAE700BF10B50C46B1F90E1082
:100E380000F05EF8A389421C0EBF23F4805343F4EC
:100E480080536065A38110BDB1F90E1000F016B88B
:100E580038B50C46084D8446114620461A460023EC
:100E68002B60644600F0AAF8431C00D038BD2B68FC
:100E7800002BFBD0236038BD9400002038B5074D07
:100E88000022044608462A6000F062F8431C00D09D
:100E980038BD2B68002BFBD0236038BD94000020A0
:100EA80070B50C46084D03460026204611461C46E0
:100EB8002E6000F055F8431C00D070BD2B68002B45
:100EC800FBD0236070BD00BF9400002038B5074DEB
:100ED8000022044608462A6000F04AF8431C00D065
:100EE80038BD2B68002BFBD0236038BD9400002050
:100EF80038B50C46084D8446114620461A4600234C
:100F08002B60644600F03CF8431C00D038BD2B68C9
:100F1800002BFBD0236038BD94000020704700BF31
:100F2800704700BF38B50C46084D84461146204628
:100F38001A4600232B60644600F02AF8431C00D0B0
:100F480038BD2B68002BFBD0236038BD94000020EF
:100F5800024B58221A604FF0FF307047940000206F
:100F6800024B58221A604FF0FF307047940000205F
:100F7800024B58221A600020704700BF94000020DE
:100F8800024B58221A604FF0FF307047940000203F
:100F9800024B58221A604FF0FF307047940000202F
:100FA800044A05491368002B08BF0B461844106013
:100FB800184670479800002028010020024B58224C
:100FC8001A604FF0FF3070479400002053B94AB9B7
:100FD800002908BF00281CBF4FF0FF314FF0FF3039
:100FE80000F074B9ADF1080C6DE904CE00F006F814
:100FF800DDF804E0DDE9022304B070472DE9F0478D
:10100800089D04468E46002B4DD18A42944669D9E4
:10101800B2FA82F252B101FA02F3C2F1200120FAC7
:1010280001F10CFA02FC41EA030E94404FEA1C4815
:10103800210CBEFBF8F61FFA8CF708FB16E341EA11
:10104800034306FB07F199420AD91CEB030306F197
:10105800FF3080F01F81994240F21C81023E6344B8
:101068005B1AA4B2B3FBF8F008FB103344EA03445C
:1010780000FB07F7A7420AD91CEB040400F1FF3371
:1010880080F00A81A74240F207816444023840EAAE
:101098000640E41B00261DB1D4400023C5E90043E7
:1010A8003146BDE8F0878B4209D9002D00F0EF806A
:1010B8000026C5E9000130463146BDE8F087B3FA9D
:1010C80083F6002E4AD18B4202D3824200F2F98085
:1010D800841A61EB030301209E46002DE0D0C5E988
:1010E800004EDDE702B9FFDEB2FA82F2002A40F0D4
:1010F8009280A1EB0C014FEA1C471FFA8CFE0126D7
:10110800200CB1FBF7F307FB131140EA01410EFB7A
:1011180003F0884208D91CEB010103F1FF3802D221
:10112800884200F2CB804346091AA4B2B1FBF7F01B
:1011380007FB101144EA01440EFB00FEA64508D93E
:101148001CEB040400F1FF3102D2A64500F2BB807B
:101158000846A4EB0E0440EA03409CE7C6F12007CA
:10116800B34022FA07FC4CEA030C20FA07F401FA10
:1011780006F31C43F9404FEA1C4900FA06F3B1FB99
:10118800F9F8200C1FFA8CFE09FB181140EA0141FE
:1011980008FB0EF0884202FA06F20BD91CEB01019B
:1011A80008F1FF3A80F08880884240F28580A8F1F3
:1011B80002086144091AA4B2B1FBF9F009FB101145
:1011C80044EA014100FB0EFE8E4508D91CEB0101E3
:1011D80000F1FF346CD28E456AD90238614440EA86
:1011E8000840A0FB0294A1EB0E01A142C846A64606
:1011F80056D353D05DB1B3EB080261EB0E0101FA8F
:1012080007F722FA06F3F1401F43C5E900710026EB
:101218003146BDE8F087C2F12003D8400CFA02FC41
:1012280021FA03F3914001434FEA1C471FFA8CFE51
:10123800B3FBF7F007FB10360B0C43EA064300FB41
:101248000EF69E4204FA02F408D91CEB030300F1DF
:10125800FF382FD29E422DD9023863449B1B89B296
:10126800B3FBF7F607FB163341EA034106FB0EF31F
:101278008B4208D91CEB010106F1FF3816D28B42CC
:1012880014D9023E6144C91A46EA004638E72E4698
:10129800284605E70646E3E61846F8E64B45A9D290
:1012A800B9EB020864EB0C0E0138A3E74646EAE7FF
:1012B800204694E74046D1E7D0467BE7023B6144AD
:1012C80032E7304609E76444023842E7704700BF16
:1012D80080B56F4696B000F0F0FB05A84421FEF7F4
:1012E8009BFF00200490CDE90200CDE900004FF4F7
:1012F800007001F043FD10B172B600BFFEE74FF475
:101308008071089140210991012111910A2102203F
:10131800129107210590CDE90F00CDE91310159022
:1013280005A800F035FC10B172B600BFFEE70F202B
:10133800009003200190002568460421CDE902555C
:10134800049501F05BF810B172B600BFFEE741F2F8
:101358004C000995CDE90755CDE90555C4F20200C1
:101368000168002241F0040101600168202601F0B3
:10137800040100910099016841F080010160016851
:1013880001F0800100910099016841F001010160BC
:10139800016801F0010100910099016841F0020122
:1013A80001600068202100F00200009000984FF0D2
:1013B800904001F0D5FC4FF4005005904FF4041014
:1013C800CDE9060540F6000005ACC4F6000021464C
:1013D80001F0EEFB0120CDE906054FF090402146D3
:1013E8000596089501F0E4FB40F29C0044F20041A8
:1013F800C2F20000C4F200010C234FF4E13280E88D
:101408002600C0E90355C0E90535C0E9075545621E
:1014180000F085F808B172B6FEE742F69474C0F69B
:10142800000400BF2046FFF72DF84FF47A7000F053
:101438009BFBF7E772B600BFFEE70000FEE700007F
:10144800FEE70000FEE70000FEE70000FEE7704749
:101458007047704780B56F4600F072FB80BD82B060
:1014680041F25800C4F20200816841F00101816034
:10147800816801F0010101910199016841F08051F1
:101488000160006800F080500090009802B070473A
:10149800B0B502AFA0B00446002501A868211F9589
:1014A800CDE91D55CDE91B55FEF7B6FE206844F27F
:1014B8000041C4F20001884201D020B0B0BD02242E
:1014C80001A801940A9501F0EBF8002818BFFFF76E
:1014D800B1FF41F24C00C4F20200C16841F400318E
:1014E800C160C16801F4003100910099016841F0C0
:1014F8000101016000681BA900F00100009000983C
:101508000C20CDE91B0400201D9003201E9007200D
:101518001F904FF0904001F04BFB20B0B0BDD0B50C
:1015280002AFC8B10446C06F28B9002084F878001B
:101538002046FFF7ADFF2420E0672068616A026853
:1015480022F00102026011B1204600F018F820468E
:1015580000F08AF8012801D10120D0BD2068416837
:1015680021F490414160816821F02A01816001687D
:1015780041F001010160204600F0A2F9D0BD80B51C
:101588006F46416A0A070CD4CA0715D18A071ED4C8
:101598004A0727D4CA0630D48A0639D44A0642D420
:1015A80056E00268D0F834C0536823F4004343EA95
:1015B8000C035360CA07E9D00268D0F828C0536802
:1015C80023F4003343EA0C0353608A07E0D502682A
:1015D800D0F82CC0536823F4803343EA0C035360DB
:1015E8004A07D7D50268D0F830C0536823F480235F
:1015F80043EA0C035360CA06CED50268D0F838C057
:10160800936823F4805343EA0C0393608A06C5D594
:101618000268D0F83CC0936823F4005343EA0C03F3
:1016280093604A0614D50268D0F840C05368BCF5E8
:10163800801F23F4801343EA0C03536008D1D2F8C7
:1016480004C0D0F844E02CF4C00343EA0E0353600E
:10165800090658BF80BD0168806C4A6822F40022E0
:101668001043486080BD0000B0B502AF044622694F
:10167800D4E90213006865690A43D4F81CC02A43F8
:10168800056846F6F311CEF6FF7142EA0C022940CE
:1016980011430160416848F2000221F440511943A6
:1016A8004160A369C4F2000290421CBF216A0B4347
:1016B800816821F430611943816044F6FF31C4F236
:1016C800000188424FF0100317DD44F60041C4F2D0
:1016D8000001884224D0904229D043F60001C4F288
:1016E8000101884238D141F28801C4F202010B6835
:1016F80042F6A475C0F600052AE044F20041C4F29F
:10170800000188421AD044F60001C4F20001884260
:1017180022D141F28801C4F2020109680B0913E0E1
:1017280041F28801C4F2020109688B090CE041F218
:101738008801C4F2020109688B0A05E041F28801B8
:10174800C4F2020109688B0842F6B475C0F60005B8
:1017580003F0030155F82130904242F20040C0F2F4
:10176800F40013D0BCF5004F1FD1082B00F25D80A8
:101778000025DFE803F00555615A5E5A5A5A75008C
:10178800002500F063FF002857D18AE0082B1CD8F9
:101798000025DFE803F0051A211A1E1A1A1A3F005D
:1017A800002500F053FFC8B97BE0082B63D800255B
:1017B800DFE803F0055C6861656161617F00002511
:1017C80000F044FF00285ED16BE00020012528B915
:1017D80067E0002500F0B1FD002862D0626802EBE6
:1017E800420188424FF001015ED3130398425BD84F
:1017F800010E000210EB520041F100010023FFF737
:10180800E5FB4FF60052A0F54071C0F20F0291427D
:1018180045D348E04FF4004000250028DED140E0E1
:10182800002500F028FF40B93BE00020012520B941
:1018380037E0002500F081FD98B361684A0802EBA3
:101848004000B0FBF1F04FF6EF72A0F110019142A9
:1018580029D84FF6F0710140C0F3420008441EE059
:101868004FF4004000250028E7D11AE0002500F0D9
:1018780002FF40B915E00020012520B911E000253C
:1018880000F05BFD68B161684FF6EF7200EB510044
:10189800B0FBF1F0A0F11001914204D880B22168A8
:1018A800C860294600E0012100220846A266E266D7
:1018B800B0BD4FF4004000250028E4D1F1E7000056
:1018C800B0B502AF82B004460020C4F8840000F02E
:1018D80044F9216805460968090719D56FF07E4C57
:1018E80020464FF4001100222B46CDF800C000F02E
:1018F80047F868B1206850E8000F216820F08000A0
:1019080041E80002002AF5D12020E067032031E0F9
:1019180020680068400726D56FF07E4C20464FF4BB
:10192800800100222B46CDF800C000F029F8D0B184
:10193800206850E8000F216820F4907041E8000208
:10194800002AF5D12068083050E8000F216820F0FF
:101958000100083141E80002002AF3D12020C4F830
:101968008000032006E02020E067C4F88000002003
:1019780020666066002184F8781002B0B0BD0000CF
:10198800F0B503AF2DE9000704460068C0690840B8
:10199800401AB0FA80F04009904254D1D7F8089024
:1019A80015460E46984609F1010A08E02068C06904
:1019B8003040801BB0FA80F04009A84243D1BAF108
:1019C800000FF3D000F0C9F80146B9F1000F4FF04D
:1019D800030039D0A1EB0801494535D820680168D2
:1019E8004907E3D5C169090731D4C1690905DDD5BE
:1019F8004FF40061016200BF206850E8000F2168C1
:101A080020F4907041E80002002AF5D120680830DF
:101A180050E8000F216820F00100083141E8000279
:101A2800002AF3D1206E01280AD100BF206850E8AF
:101A3800000F216820F0100041E80002002AF5D1CB
:101A4800032020212CE00020BDE80007F0BD08217C
:101A5800016200BF206850E8000F216820F49070F0
:101A680041E80002002AF5D12068083050E8000F4C
:101A7800216820F00100083141E80002002AF3D172
:101A8800206E01280AD100BF206850E8000F2168A5
:101A980020F0100041E80002002AF5D101200821B9
:101AA8002022C4F8802000222266A266C4F884108E
:101AB80084F87820BDE80007F0BD80B56F4642F293
:101AC8000000C4F20200016841F480710160032043
:101AD80001F097F9002000F008F800281CBF012049
:101AE80080BDFFF7BCFC002080BDB0B502AF40F25E
:101AF8006801C2F20001097801B3044640F26C00A3
:101B0800C2F200004FF47A720068B2FBF1F1B0FB48
:101B1800F1F001F0B2F90F2C4FF001050CD858B9CB
:101B28004FF0FF3021460022002501F07AF940F2FB
:101B38006400C2F2000004602846B0BD0120B0BDB8
:101B480040F2680040F22411C2F20000C2F2000123
:101B580000780A6810440860704740F22410C2F206
:101B68000000006870470000B0B502AF0446FFF7F8
:101B7800F4FF054640F26800C2F200000078611CDC
:101B880018BF0444FFF7E9FF401BA042FAD3B0BDD9
:101B9800F0B503AF2DE9000784B0002800F02983D1
:101BA80041F200068246C4F20206B068F1689AF86B
:101BB800002000F00C08D00601F003091FD49AF8A1
:101BC8000000C00700F0F580B8F1080F48D0B8F160
:101BD8000C0F08BFB9F1030F42D0DAF80450B5F57D
:101BE800A02F00F0C280B5F5803F00F0C2803068B9
:101BF80020F480303060306820F48020BCE0B8F1F8
:101C0800000F1CD0B8F10C0F08BFB9F1010F16D0A6
:101C1800DAF818103068002975D040F001003060FB
:101C2800FFF79BFF054600BF306880077ED4FFF7AB
:101C380094FF401B02284FF00300F5D9DAE2306820
:101C4800800704D5DAF81800002800F0D282DAF804
:101C58002050306800070DD4D6F8940000090AE037
:101C68003068800340F1A580DAF80400002840F0CD
:101C7800A080BEE2306800F0F000854219D9B06D4E
:101C8800C00065D4B06D40F08050B065B06D00F014
:101C980080500290029801F069F8B16D21F08051EE
:101CA800B165B0F5007F58D0802D40F23582032011
:101CB8003CE23068B8F1000F40F00800306030684E
:101CC80020F0F00040EA050030607068DAF81C1077
:101CD80020F47F4040EA0120706040F07882B06DC7
:101CE800C00000F14382B06D40F08050B065B06D27
:101CF80000F080500390039801F038F8B16D21F09E
:101D08008051B16534E220F001003060FFF725FF13
:101D1800054600BF306880077FF551AFFFF71DFF0C
:101D2800401B02284FF00300F4D963E2306840F00A
:101D3800080030603068DAE9072120F0F000084335
:101D48003060706820F47F4040EA0220706036E717
:101D580001F00CF8B0F5007FA6D1812DC0F0E58127
:101D68000120A02D88BF0220E0E1306840F48020E7
:101D78003060306840F480303060FFF7EEFE002DB0
:101D8800054613D03068800313D4FFF7E6FE401BE6
:101D980064284FF00300F5D92CE200BFFFF7DDFE01
:101DA800401B64284FF0030000F22482306880034F
:101DB800F4D49AF8000080072FD5B8F1040F1CD08E
:101DC800B8F10C0F08BFB9F1020F16D0DAF80C10F1
:101DD8003068002900F08D8140F480703060FFF792
:101DE800BCFE0546306840050FD4FFF7B6FE401B21
:101DF80002284FF00300F5D9FCE13068400504D50E
:101E0800DAF80C00002800F0F4817068DAF8101095
:101E180020F0FE4040EA016070609AF80000000778
:101E28006AD49AF80000400700F180809AF8000010
:101E3800800600F1B580DAF82800002800F0AD81AE
:101E4800022840F0DC80F068DAF82C1000F0030279
:101E58008A4240F0EB80DAF830206FF00F0300F090
:101E6800700103EB0212914240F0E080DAF834107E
:101E780000F4FE42B2EB012F40F0D880DAF83810B7
:101E880000F07842B2EBC16F40F0D080DAF83C2025
:101E98000023CFF6E07303EB025200F4C0016FF3A6
:101EA8001402914240F0C280DAF840104FF07E42AE
:101EB80002EB016100F0C06001F07E41884240F011
:101EC800B5803068800100F16881306840F080702A
:101ED8003060F06840F08070F060FFF73EFE044626
:101EE8003068800100F15981FFF737FE001B022896
:101EF8004FF00300F4D97DE1DAF81410D6F8940015
:101F0800002968D040F00100C6F89400FFF725FECC
:101F1800054600BFD6F8940080073FF582AFFFF76B
:101F28001CFE401B0228F5D9032063E1B06D10F0B8
:101F3800805908D1B06D40F08050B065B06D00F0A8
:101F480080500190019847F20004C4F20004206810
:101F5800C00512D4206840F480702060FFF7FDFDB2
:101F6800054600BF2068C00507D4FFF7F6FD401BF3
:101F780002284FF00300F5D93CE1DAF80850052DA6
:101F880000F08380012D00F08680D6F8900020F0C4
:101F98000100C6F89000D6F8900020F004007EE01A
:101FA800DAF82410D6F8980000295AD040F0010039
:101FB800C6F89800FFF7D1FD054600BFD6F898008F
:101FC80080073FF538AFFFF7C8FD401B02284FF0E8
:101FD8000300F3D90EE120F00100C6F89400FFF7E2
:101FE800BCFD0546D6F8940080077FF51AAFFFF7C9
:101FF800B4FD401B02284FF00300F3D9FAE0B8F112
:102008000C0F00F0F680306820F080703060FFF729
:10201800A4FD04463068800140F1B880FFF79DFDBB
:10202800001B02284FF00300F4D9E3E0B8F10C0FCD
:1020380000F0DF803068400100F1DB80306820F07C
:1020480080703060FFF789FD05463068800140F1F7
:102058003581FFF782FD401B02284FF00300F4D9B9
:10206800C8E020F00100C6F89800FFF776FD0546A5
:10207800D6F8980080077FF5DEAEFFF76EFD401BAF
:1020880002284FF00300F3D9B4E0D6F8900040F0EE
:102098000400C6F89000D6F8900040F00100C6F899
:1020A8009000FFF75AFD002D054641F2883413D001
:1020B800D6F89000800713D4FFF74FFD401BA042CD
:1020C8004FF00300F4D995E0FFF747FD401BA0420D
:1020D8004FF0030000F28E80D6F890008007F3D40A
:1020E800B9F1000F7FF4A2AEB06D20F08050B0655A
:1020F8009CE620F480703060FFF72FFD054600BF96
:10210800306840057FF589AEFFF727FD401B0228A0
:102118004FF00300F4D96DE0A5F17000B0FA80F03B
:102128004009802D08BF022000E0002042F2000193
:10213800C4F202010A6822F0070202440A60096830
:1021480001F00701814254D1306840F00800306046
:102158003068DAE9072120F0F00008433060706841
:1021680020F47F4040EA0220706030E000F0FEFD7D
:10217800B0F5007F06D1812D11D30120A02D88BF95
:10218800022016E0802D0CD9032012E0F0684FF6EB
:10219800FC71CFF6EE610840F06000202AE00020D4
:1021A80007E0A5F17000B0FA80F04009802D08BF63
:1021B800022042F20001C4F202010A6822F007027A
:1021C80002440A60096801F00701814211D1B06830
:1021D800F16810F00C0005D00C282BD101F0030198
:1021E800012927D13168090708D4D6F89410090ABB
:1021F80006E0012004B0BDE80007F0BD3168090918
:1022080042F6DC7201F00F01C0F6000252F821100C
:1022180000280A4618BF00220C282BD1F06800F0CD
:102228000300022810D0032804BF41F20021C0F2A5
:102238007A010DE0042838D008283CD141F2002268
:102248000021C0F27A02E7E742F20041C0F2F4014D
:10225800F068F268C0F30210C2F306225143F26834
:102268000130B1FBF0F0C2F34161022202EB4101FF
:10227800B0FBF1F2B06842F6C471C0F30310C0F6C7
:102288000001085C00F01F0022FA00F140F264002F
:10229800C2F2000040F26C020068C2F20002116053
:1022A800FFF723FC0028A5D189E442F2004200216F
:1022B800C0F2F402B0E700220021ADE7F06848F26E
:1022C8008C01C0F29D110AF12C0E00EA010C9EE867
:1022D8000E406FF00F05DAE90F4005EB02120025FA
:1022E800CFF6E07541EA0C0105EB045411436FF396
:1022F80014044FF07E4541EA032105EB00602143B9
:1023080000F07E4041EACE610843F060306840F05A
:1023180080703060F06840F08070F060FFF71DFC5E
:102328000446306880013FF538AFFFF716FC001B04
:1023380002284FF00300F4D95CE741F20C01C4F223
:10234800020151F8040C10F00C02086805D00C2AA0
:1023580040D100F0030001283CD151F80C0C0007D3
:1023680003D4D1F88800000A02E051F80C0C0009E7
:1023780042F6DC7300F00F00C0F6000353F820307B
:10238800002A184618BF00200C2A18BF7047086892
:1023980000F00300022806D0032804BF41F20023FE
:1023A800C0F27A0303E042F20043C0F2F403086883
:1023B8000A68C0F30210C2F30622096801305A43C2
:1023C800B2FBF0F0C1F34161022202EB4101B0FB24
:1023D800F1F07047042A07D0082A0BD141F20020F7
:1023E8000023C0F27A00CFE742F200400023C0F297
:1023F800F400C9E700200023C6E70000F0B503AFEA
:102408002DE90007002800F08A8042F20009C4F292
:1024180002090446D9F800008A4600F007008842FD
:102428000DD2D9F8000020F0070040EA0A00C9F8E8
:102438000000D9F8000000F0070050456FD120686F
:1024480041F208088107C4F202080DD5A168D8F83E
:10245800002002F0F002914206D9D8F8002022F0BC
:10246800F0021143C8F80010C0074ED12068810758
:102478000DD5A168D8F8002002F0F002914206D2EA
:10248800D8F8002022F0F0021143C8F80010D9F85B
:10249800001001F0070151450DD9D9F8001021F0BD
:1024A800070141EA0A01C9F80010D9F8001001F043
:1024B8000701514533D1410707D5D8F80010E26824
:1024C80021F4E0611143C8F80010000708D5D8F8D6
:1024D8000000216920F4605040EAC100C8F80000FB
:1024E800D8F80000D8F8041010F00C0005D00C281B
:1024F80037D101F00301012933D158F8081C090725
:1025080011D4D8F88C10090A10E0606898B3022832
:1025180054D0032857D158F8081C89012FD401201A
:10252800BDE80007F0BD58F8081C090942F6DC723E
:1025380001F00F01C0F6000252F8211000280A46E7
:1025480018BF00220C285CD1D8F8040000F0030062
:1025580002283DD0032804BF41F20021C0F27A01CD
:102568003AE0042869D008286DD141F20022002100
:10257800C0F27A02E6E758F8081C8907CFD5D8F8E0
:10258800001021F003010843C8F80000FFF7E5FA3E
:10259800064641F2883500BFD8F80000616800F0AF
:1025A8000C00B0EB810F3FF461AFFFF7D6FA801B48
:1025B800A842F1D90320BDE80007F0BD58F8081C6F
:1025C8008903ACD5DBE758F8081C4905A7D5D6E739
:1025D80042F20041C0F2F401D8F80400D8F804200F
:1025E800C0F30210C2F306225143D8F80420013088
:1025F800B1FBF0F0C2F34161022202EB4101B0FBF2
:10260800F1F2D8F8000042F6C471C0F30310C0F626
:102618000001085C00F01F0022FA00F140F264009B
:10262800C2F2000040F26C020068C2F200021160BF
:10263800FFF75BFABDE80007F0BD42F20042002157
:10264800C0F2F4027EE7002200217BE740F26C0032
:1026580041F20801C2F20000C4F2020100680968F0
:1026680042F6D472C1F30221C0F60002515C01F0B7
:102678001F01C840704740F26C0041F20801C2F2E5
:102688000000C4F202010068096842F6D472C1F37E
:10269800C221C0F60002515C01F01F01C84070471A
:1026A800F0B503AF2DE9000F81B00446407841F240
:1026B800880B0007C4F2020B02D44FF0000830E088
:1026C800E06C88B1B0F5400F17D0B0F5000F1BD102
:1026D8005BF87C0C4FF0000840F480304BF87C0C21
:1026E800B8F1000F0ED114E0201D002100F096F97A
:1026F8008046B8F1000F05D10BE04FF00008B8F1A3
:10270800000F06D0C1460EE04FF00108B8F1000FE7
:10271800F8D1DBF80000E16C20F440000843CBF866
:1027280000004FF00009A078800701D4C8466DE08A
:102738005BF8300C10F0805A0BD15BF8300C40F08D
:1027480080504BF8300C5BF8300C00F08050009053
:10275800009847F20005C4F20005286840F480702C
:102768002860FFF7FAF906462868C00506D4FFF77F
:10277800F4F9801B0328F7D34FF00308B8F1000FD2
:102788003BD1DBF8080010F4407017D0616E884226
:1027980011D0DBF80800DBF8081020F4407041F491
:1027A8008031CBF80810DBF8081021F48031CBF821
:1027B8000810CBF80800C00703D112E00020C007BA
:1027C8000FD0FFF7CAF9064641F28935DBF8080051
:1027D800800706D4FFF7C1F9801BA842F6D34FF053
:1027E8000308B8F1000F08D1DBF80800616E20F487
:1027F80040700843C846CBF80800BAF1000F05D16D
:102808005BF8300C20F080504BF8300C2068C10782
:1028180016D181071ED4410726D401072ED481067C
:1028280036D481053ED4410546D441064ED401062E
:1028380056D4C1055ED4C10266D480046ED489E042
:10284800DBF80010226A21F003011143CBF80010D5
:102858008107E0D5DBF80010626A21F00C01114312
:10286800CBF800104107D8D5DBF80010A26A21F098
:1028780030011143CBF800100107D0D5DBF8001068
:10288800E26A21F0C0011143CBF800108106C8D5D7
:10289800DBF80010226B21F440611143CBF80010E3
:1028A8008105C0D5DBF80010626C21F4402111438A
:1028B800CBF800104105B8D5DBF80010A26C21F464
:1028C80040111143CBF800104106B0D5DBF80010D9
:1028D800626B21F440511143CBF800100106A8D5D2
:1028E800DBF80010A26B21F440411143CBF8001033
:1028F800C105A0D5DBF80010E26B21F4403111438B
:10290800CBF80010C10298D5DBF81410226C21F026
:1029180003011143CBF8141080041BD5DBF8001019
:10292800206D21F040610143B0F1806FCBF80010B9
:1029380009D0B0F1006F0DD15BF87C0C40F4801029
:102948004BF87C0C06E0201D012100F067F80028F8
:1029580018BF8046A07800071BD5DBF80010606D13
:1029680021F040610143B0F1806FCBF8001009D02D
:10297800B0F1006F0DD15BF87C0C40F480104BF87F
:102988007C0C06E0201D012100F048F8002818BF43
:102998008046A07840071BD5DBF80010A06D21F019
:1029A80040610143B0F1806FCBF8001009D0B0F15D
:1029B800006F0DD15BF87C0C40F480104BF87C0C58
:1029C80006E0201D012100F029F8002818BF8046E4
:1029D8006078400611D5DBF80000E16D20F040502A
:1029E8000843B1F1805FCBF8000006D1201D022119
:1029F80000F014F8002818BF8046A078C00707D058
:102A0800DBF80000216E20F000400843CBF80000FE
:102A1800404601B0BDE8000FF0BD0000F0B503AFBF
:102A28002DE9000B41F20004C4F20204E268884672
:102A38009107814613D0E168D9F8000001F003013D
:102A480081420AD148B1E068D9F80410C0F30210F5
:102A58000130884201D100253AE0012538E0D9F853
:102A6800000003280DD0022819D0012821D121689F
:102A7800012301F00202C1F3400183EA5205D9B9EA
:102A880026E0216889034FF0010149D4226802F445
:102A9800802381EA9345C2F3804169B918E021682F
:102AA800012301F48062C1F3802183EA922519B9D8
:102AB8000EE00125002159B1E168D9F8042021F080
:102AC80073016FF00F0303EB021208431043E06039
:102AD800002D68D1206820F080602060FFF73DF865
:102AE800064600BF2068000105D5FFF736F8801BB1
:102AF8000328F7D30325002D55D1B8F1010F13D0C2
:102B0800B8F1000F24D1206948F2FF01C0F2FF712B
:102B18000840D9E9021240EA012040EAC2602AE0EE
:102B280000250029C8D1D3E748F2FF012069CFF674
:102B3800FF11D9F81020002301F1B461CFF6E0733A
:102B48000840D9F8081003EB02526FF314020FE0A3
:102B5800206948F2FF01D9F81420CFF6FF114FF091
:102B68007E430840D9F8081003EB026202F07E4267
:102B780040EA012010432061206840F08060206016
:102B8800FEF7EBFF064600BF2068000105D4FEF7FC
:102B9800E4FF801B0328F7D3032525B9D9F81800CB
:102BA8002169084320612846BDE8000BF0BD0000FC
:102BB800F0B503AF2DE9000F82B00A68002A00F0D3
:102BC800CB8041F2000400F13846C4F600044FEA15
:102BD800B6250723A04208BF0423042D4FF00005A3
:102BE8004FF000044FF0010A38BF4FEAB6230093B4
:102BF8000AE000BF0A68043432FA0AF30AF1010A4B
:102C080005F1020500F0A880AAF1010C012303FADE
:102C18000CFB12EA0B09EDD0D1F804E00EF0030228
:102C2800A2F10108B8F1010F12D8D0F808800323E7
:102C3800CE68AB4028EA0303AE4033438360436861
:102C4800CEF3001623EA0B0306FA0CF6334343606F
:102C5800032A1FD00323D0F80CE003FA05F68B688B
:102C68002EEA0606AB403343022AC36012D16FF046
:102C7800030202EA5C02024404F01C060F23D2F8A5
:102C880020E003FA06F80B692EEA080EB34043EA7F
:102C98000E031362026803234E68AB409A4306F0A2
:102CA8000303AB401A4316F4403F0260A2D041F23E
:102CB8006003C4F202031A6840F2004842F00102BD
:102CC8001A601A68C4F2010802F001020192019A1E
:102CD8002CF003024FF6084E4244CFF6FF7E52F81E
:102CE8000EC004F00C060F23B3402CEA030C009B23
:102CF80003FA06F646EA0C0342F80E30D8F808C084
:102D08004B684CEA090640F20C4EDA0258BF2CEA2E
:102D18000906C8F80860C4F2010EDEF800C09A027D
:102D28004CEA090658BF2CEA0906CEF80060D8F824
:102D380004C09A034CEA090658BF2CEA0906C8F8E9
:102D48000460D8F80020DB0342EA090658BF22EAEB
:102D58000906C8F800604DE702B0BDE8000FF0BDF5
:102D68001823002A08BF2823C150704747F20000E3
:102D7800C4F20000006800F4C060704747F2000C1D
:102D8800C4F2000CDCF80020B0F5007F02F4C0604B
:102D98002BD1B0F5007F26D0DCF80000012262F3C9
:102DA8004A20CCF8000040F26C00C2F20000006833
:102DB800322358434DF68363C4F21B33A0FB03034D
:102DC80002EB9340002200BFDCF81410013842F1F6
:102DD8000003490501D5002BF6D1DCF814004005A5
:102DE80044BF0320704700207047B0F5806FFAD0C9
:102DF800DCF80000022161F34A20CCF80000002032
:102E080070474EF60C51CEF200010A684FF6FF03E8
:102E18001A4060F30A2242F0806040F0FD700860BA
:102E28007047D0B502AF4EF60C5CCEF2000CDCF861
:102E38000030C3F3022E8EF00704042C28BF0424AC
:102E4800BEF103034FF0FF3E0EFA04F438BF00232F
:102E5800A14399400EFA03F39A4300F00F03043B91
:102E68001143634409010C3300F16042B0F1FF3FA4
:102E7800C8BF02F564431970D0BD411E0020B0EBF5
:102E8800116F1CBF012070474EF21002CEF20002F3
:102E980051604EF62351CEF20001F0230B7007214A
:102EA8009060116070474EF68850CEF200000168BD
:102EB80041F4700101607047DFF834D0FFF7F3FF89
:102EC8000C480D490D4A002302E0D458C45004337D
:102ED800C4188C42F9D30A4A0A4C002301E0136053
:102EE8000432A242FBD3FDF7E9F9FEF7F1F9FEE758
:102EF8000080022000000020700000202830000818
:102F08007000002028010020FEE70000F8B500BF8F
:102F1800F8BC08BC9E467047F8B500BFF8BC08BCB2
:082F28009E4670470000000006
:102F3000040000200000000000000000000000006D
:102F40000000000000000000000000000000000081
:102F50000000000000000000000000000000000071
:102F60000000000000000000000000000000000061
:102F70000000000000000000000000000000000051
:102F80000000000000000000000000000000000041
:102F90000000000048656C6C6F20576F726C6421F4
:102FA000000000000100000004000000020000001A
:102FB0000800000000000000040000000200000003
:102FC00008000000000000000000000001020304EF
:102FD000060708090000000001020304A0860100A2
:102FE000400D0300801A060000350C0040420F001F
:102FF00080841E0000093D0000127A000024F400C5
:1030000000366E010048E801006CDC0200000000A0
:08301000F4DFFF7F0100000066
:083018000102000800000000A5
:08302000D901000800000000C6
:103028000400002000000000742F0008542F00083E
:10303800342F00080000000000000000000000001D
:103048000000000000000000000000000000000078
:103058000000000000000000000000000000000068
:103068000000000000000000000000000000000058
:103078000000000000000000000000000000000048
:1030880000000000100000000100000000093D00E1
:0400000508002EC100
:00000001FF
