:020000040800F2
:1000000000800220B12C0008AD130008AF130008D7
:10001000B1130008B3130008B51300080000000076
:10002000000000000000000000000000B7130008FE
:10003000B913000800000000BB130008BD1300083E
:10004000012D0008012D0008012D0008012D0008D8
:10005000012D0008012D0008012D0008012D0008C8
:10006000012D0008012D0008012D0008012D0008B8
:10007000012D0008012D0008012D0008012D0008A8
:10008000012D0008012D0008012D0008012D000898
:10009000012D0008012D0008012D0008012D000888
:1000A000012D0008012D0008012D0008012D000878
:1000B000012D0008012D000800000000012D00089E
:1000C000012D0008012D0008012D0008012D000858
:1000D000012D0008012D0008012D0008012D000848
:1000E000012D0008012D00080000000000000000A4
:1000F0000000000000000000000000000000000000
:1001000000000000012D000800000000012D000883
:10011000012D000800000000012D00080000000073
:10012000012D0008012D0008012D0008012D0008F7
:10013000012D0008012D0008012D0008000000001D
:10014000012D0008012D0008012D0008012D0008D7
:10015000012D0008012D0008012D0008012D0008C7
:10016000012D0008012D0008012D000800000000ED
:1001700000000000012D0008000000000000000049
:10018000012D0008012D0008012D0008012D000897
:08019000012D00080000000031
:100198000348044B834202D0034B03B1184770470E
:1001A800700000207000002000000000054806498B
:1001B8000B1AD90F01EBA301491002D0034B03B16D
:1001C80018477047700000207000002000000000F1
:1001D80010B5064C237843B9FFF7DAFF044B13B187
:1001E8000448AFF300800123237010BD7000002085
:1001F80000000000042D000808B5044B1BB1044999
:100208000448AFF30080BDE80840CFE700000000D5
:1002180074000020042D000870B50D4E0D4D761B9E
:10022800B61006D0002455F8043B01349847A6427E
:10023800F9D1094E094D761B02F060FDB61006D0C3
:10024800002455F8043B01349847A642F9D170BD03
:10025800E82D0008E82D0008EC2D0008E82D00081E
:10026800830730B548D0541E002A3FD0CAB203468F
:1002780001E0013C3AD303F8012B9D07F9D1032C87
:100288002DD9CDB245EA05250F2C45EA054536D9C5
:10029800A4F1100222F00F0C03F1200EE6444FEAFD
:1002A800121C03F1100242E9045542E902551032CA
:1002B8007245F8D10CF1010214F00C0F03EB021295
:1002C80004F00F0C13D0ACF1040323F00303043340
:1002D800134442F8045B9342FBD10CF003042CB1A5
:1002E800CAB21C4403F8012B9C42FBD130BD6446C2
:1002F8001346002CF4D1F9E703461446BFE71A4623
:10030800A446E0E72DE9F0410E460746002833D021
:1003180083697BB384682F4B9C4237D02E4B9C4219
:100328003FD02E4B9C4208BFFC68A3891B0731D5E0
:1003380023697BB33578B0463DB934E023685A1C4D
:1003480022601D7018F8015F6DB3A368013B002B94
:10035800A360F3DAA669B34229462246384601DB90
:100368000A2DEBD100F044F80130EBD14FF0FF300B
:10037800BDE8F08100F012FBBB69BC68002BCAD154
:10038800384600F00BFB134B9C42C7D17C68A3890D
:100398001B07CDD42146384600F08EF80028C9D076
:1003A800E4E7BC68C1E7A368013B002BA36009DA56
:1003B80022460A21384600F01BF80130D6D00A2020
:1003C800BDE8F08123680A22591C21601A70104682
:1003D800BDE8F081642D0008442D0008242D000894
:1003E800024B01461868FFF78DBF00BF00000020D0
:1003F800F8B50D461446064608B1836943B3254B44
:100408009C422AD0244B9C4229D0244B9C4208BFB2
:10041800F468A389A269A2601A0722D5236903B3E5
:1004280022686169D31AEDB299422F4629DD01335A
:10043800A1680139A160511C2160157062699A4256
:1004480016D0A389DB0701D50A2D11D03846F8BD8F
:1004580000F0A4FA0F4B9C42D4D17468D9E7B46871
:10046800D7E72146304600F027F838B92369D7E79F
:100478002146304600F02CF90028E7D04FF0FF372E
:10048800E4E72146304600F023F90028F6D1226837
:100498000123CDE7642D0008442D0008242D000811
:1004A80010B4044C03460A4620685DF8044B19460C
:1004B800FFF79EBF000000203C4B70B51D68064644
:1004C8000C460DB1AB69E3B1394B9C421FD0394B97
:1004D8009C424DD0384B9C4208BFEC68B4F90C30B4
:1004E80018079AB219D5216911B312F001002FD05B
:1004F8000020A06060694042A06100292ED0002041
:1005080070BD284600F04AFA294B9C42DFD16C683E
:10051800B4F90C3018079AB2E5D4D1063ED5520783
:1005280028D4216943F00803A3819AB20029DCD1B9
:1005380002F42070B0F5007FD7D02146304600F095
:1005480091FAB4F90C3021699AB212F00100CFD1B6
:10055800950758BF6069A0600029D0D1120658BF1E
:100568000846CDD543F04003A3814FF0FF3070BD5E
:10057800AC68B3E7616B51B104F14402914204D015
:10058800304600F0FDFAB4F90C30002262632169AC
:100598000022C4E9001223F02403C3E7092243F030
:1005A800400332604FF0FF30A38170BD000000208F
:1005B800642D0008442D0008242D00088B891A0793
:1005C8002DE9F0410C4680463FD44A68002A58DDA0
:1005D800E66A002E52D00022D8F80050C8F8002051
:1005E80013F4805251D10123216A4046B047431C7D
:1005F8005ED0A389E66A5F0705D56368C01A636B96
:100608000BB1236CC01A216A024600234046B0474A
:10061800411C3CD1D8F80030002B38D01D2B01D01C
:10062800162B4DD123690022C4E90032616BC8F84A
:10063800005019B304F14403994202D0404600F037
:100648009FFA00206063BDE8F0810E69B6B10D68BD
:100658000E609A070CBF4B690023AD1B8B600BE043
:100668002B463246216AA76A4046B847B0F1000CCB
:10067800A5EB0C05664413DD002DF1DC0020BDE878
:10068800F0810A6C002AA3DCF8E7606DB3E7002369
:10069800636023692360A389DB04C7D56065C5E768
:1006A800A38943F040034FF0FF30A381BDE8F081F8
:1006B800D8F80030002B9CD01D2B06D0162B04D068
:1006C800A38943F04003A381D9E7C8F80050D5E7D0
:1006D80038B50B69BBB10D46044608B18369B3B19F
:1006E8000D4B9D4211D00D4B9D4213D00C4B9D429A
:1006F80008BFE568B5F90C302BB129462046BDE89E
:100708003840FFF75BBF002038BD6568F2E700F0AE
:1007180045F9E5E7A568EDE7642D0008442D0008D4
:10072800242D000838B540B303690446E3B1174BDC
:100738001D680DB1AB69CBB1154B9C420FD0154B61
:100748009C4221D0144B9C4208BFEC68B4F90C3091
:1007580053B121462846BDE83840FFF72FBF6C68E3
:10076800B4F90C30002BF4D1002038BD284600F035
:1007780015F9074B9C42E2D1F1E7084B0849186884
:10078800BDE8384000F04AB9AC68DFE70000002057
:10079800642D0008442D0008242D0008202D000891
:1007A800D906000800207047014900F037B900BF9A
:1007B800D90600080020704770B568224D1E02FB5C
:1007C80005F50E4605F1740100F03CFA044640B107
:1007D80000210C30C4E90016A06005F16802FFF79B
:1007E8003FFD204670BD00BF274B2DE9F0411E6834
:1007F800B369074653B348364FF00408D6E90134C5
:10080800013B04D51EE05A1C04F168041AD0B4F95F
:100818000C50013B002DF6D11C4B6566C4E9005510
:10082800C4E90253C4E90455A5610822294604F124
:100838005C00FFF715FDC4E90D55C4E912552046C3
:10084800BDE8F08135682DB12E46D7E7304600F077
:100858001FF8D0E74FF4D671384600F0F3F9044694
:1008680068B10560C0F804800C302946A0602546B0
:100878004FF4D072FFF7F4FC34602E46BEE70C2329
:1008880030603B60DBE700BF202D00080100FFFF60
:100898002DE9F84F344B35491A68816290424FF080
:1008A8000003C0E91233036504BF012383610546D1
:1008B800FFF79AFF68602846FFF796FFA86028466A
:1008C800FFF792FF6F68E86000240423C7E902433A
:1008D80008222146C7E90044C7E904447C66BC6194
:1008E80007F15C00FFF7BCFCDFF88CB0AE68DFF8FE
:1008F8008CA0DFF88C90DFF88C801D4BC7F828A0FF
:10090800C7E9087BC7F82C90C7F830800822F36045
:10091800C6E90044C6E904447466B460B46121467B
:1009280006F15C00FFF79CFCC6E9086BC6E90AA95A
:10093800C6F83080EE680F4BF360C6E90044C6E99C
:1009480004447466B460B4612146082206F15C0070
:10095800FFF786FC0123C6E9086BC6E90B98C6F8C1
:1009680028A0AB61BDE8F88F202D0008B10700086A
:100978000900010012000200250D00084D0D0008B5
:100988008D0D0008AD0D0008024B0349186800F0F2
:1009980045B800BF202D0008D9060008836903B9AF
:1009A80076E77047704700BF704700BF704700BFC9
:1009B800704700BF024B0349186800F00FB800BF2A
:1009C80000000020AD070008024B0349186800F03A
:1009D80005B800BF00000020BD0700082DE9F04160
:1009E800884600F148070026D7E90154013D0FD495
:1009F800A389012B05F1FF3506D9B4F90E3001336F
:100A0800204601D0C04706436B1C04F16804EFD1AF
:100A18003F68002FE8D13046BDE8F0812DE9F84362
:100A28000746884600F148064FF00009D6E9015408
:100A3800013D11D4A389012B05F1FF3508D9B4F97B
:100A48000E300133214603D03846C04749EA000931
:100A58006B1C04F16804EDD13668002EE6D14846D7
:100A6800BDE8F883F0B58B890C46990797B007D590
:100A780004F147030122C4E90432236017B0F0BD32
:100A8800B4F90E10002905462DDB6A4600F0B6F9C8
:100A9800002827DB019E06F470464FF48067A6F510
:100AA8000056B6FA86F639462846760900F0CAF89E
:100AB80030B3A3891A4AAA6243F08003C4E9040741
:100AC800A3812060002ED9D0B4F90E10284600F07A
:100AD800ABF90028D2D0A38923F0030343F0010324
:100AE800A381CBE7A38913F0800F14BF40274FF4ED
:100AF800806739462846002600F0A4F80028D8D197
:100B0800B4F90C309A05B9D423F0030304F1470271
:100B180043F002030121C4E90421A3812260ADE767
:100B2800B107000870B50C46B1F90E10002996B04F
:100B380016461D4613DB6A4600F060F900280EDBF6
:100B4800019901F47041A1F50051B1FA81F14FF416
:100B58008063490900202960336016B070BDB4F97C
:100B68000C3000221B062A6004D540230020336085
:100B780016B070BD4FF480630020336016B070BDAE
:100B8800002958D030B551F8043C83B0002BA1F1AE
:100B98000404B8BFE418019000F06EF9284A0198DF
:100BA800136833B1A3420DD9216804EB010C6345E6
:100BB8002FD06360146003B0BDE8304000F05EB928
:100BC800A34210D81A465B68002BF9D1116802EBD2
:100BD800010C644519D02FD36360546003B0BDE89D
:100BE800304000F04BB9116802EB010CA44516D057
:100BF80022D8216804EB010C6345EDD11D685B68C0
:100C08002944C4E900135460D5E7236819441160E6
:100C1800D1E71D685B682944C4E90013CAE7246862
:100C280021445418A3421160C5D1D3E9004321449B
:100C3800C2E90013BFE770470C230360BBE700BF9E
:100C48008C000020F8B5CD1C25F0030508350C2DC7
:100C580038BF0C25002D064623DBA94221D8254F95
:100C680000F00AF93A6822B3144603E063682246A2
:100C7800FBB11C4623685B1BF8D40B2B15D86368A3
:100C880094420CBF3B605360304600F0F7F804F123
:100C98000B00231D20F00700C21A01D01B1AA35015
:100CA800F8BD0C2333600020F8BD23601C44256088
:100CB800EAE77968C9B12946304600F01DF8431CB7
:100CC8000CD0C41C24F00304A04205D0211A3046DD
:100CD80000F012F8013001D02560D5E70C2330462A
:100CE800336000F0CBF80020F8BD304600F004F87F
:100CF8007860E0E78C00002038B5074D00220446F4
:100D080008462A6000F0FAF8431C00D038BD2B686A
:100D1800002BFBD0236038BD9400002010B50C4692
:100D2800B1F90E1000F0ACF8002803DB636D034442
:100D3800636510BDA38923F48053A38110BD00BF50
:100D4800002070472DE9F0410C46B1F90C101F4600
:100D5800CB05054616460BD421F48051A1813B46AC
:100D6800B4F90E1032462846BDE8F04100F01EB82E
:100D7800B4F90E100223002200F068F8B4F90C1040
:100D8800EAE700BF10B50C46B1F90E1000F05EF8A6
:100D9800A389421C0EBF23F4805343F4805360653B
:100DA800A38110BDB1F90E1000F016B838B50C4685
:100DB800084D8446114620461A4600232B60644697
:100DC80000F0AAF8431C00D038BD2B68002BFBD0DC
:100DD800236038BD9400002038B5074D0022044632
:100DE80008462A6000F062F8431C00D038BD2B6822
:100DF800002BFBD0236038BD9400002070B50C4652
:100E0800084D03460026204611461C462E6000F079
:100E180055F8431C00D070BD2B68002BFBD0236015
:100E280070BD00BF9400002038B5074D002204466D
:100E380008462A6000F04AF8431C00D038BD2B68E9
:100E4800002BFBD0236038BD9400002038B50C4639
:100E5800084D8446114620461A4600232B606446F6
:100E680000F03CF8431C00D038BD2B68002BFBD0A9
:100E7800236038BD94000020704700BF704700BF52
:100E880038B50C46084D8446114620461A460023BC
:100E98002B60644600F02AF8431C00D038BD2B684C
:100EA800002BFBD0236038BD94000020024B582251
:100EB8001A604FF0FF30704794000020024B582210
:100EC8001A604FF0FF30704794000020024B582200
:100ED8001A600020704700BF94000020024B58227F
:100EE8001A604FF0FF30704794000020024B5822E0
:100EF8001A604FF0FF30704794000020044A0549FB
:100F08001368002B08BF0B4618441060184670473A
:100F18009800002028010020024B58221A604FF048
:100F2800FF3070479400002053B94AB9002908BF20
:100F380000281CBF4FF0FF314FF0FF3000F074B9AC
:100F4800ADF1080C6DE904CE00F006F8DDF804E018
:100F5800DDE9022304B070472DE9F047089D0446F7
:100F68008E46002B4DD18A42944669D9B2FA82F254
:100F780052B101FA02F3C2F1200120FA01F10CFA90
:100F880002FC41EA030E94404FEA1C48210CBEFBC8
:100F9800F8F61FFA8CF708FB16E341EA034306FB51
:100FA80007F199420AD91CEB030306F1FF3080F0E0
:100FB8001F81994240F21C81023E63445B1AA4B22D
:100FC800B3FBF8F008FB103344EA034400FB07F7CF
:100FD800A7420AD91CEB040400F1FF3380F00A8110
:100FE800A74240F207816444023840EA0640E41B05
:100FF80000261DB1D4400023C5E900433146BDE8B1
:10100800F0878B4209D9002D00F0EF800026C5E952
:10101800000130463146BDE8F087B3FA83F6002E6A
:101028004AD18B4202D3824200F2F980841A61EBE2
:10103800030301209E46002DE0D0C5E9004EDDE700
:1010480002B9FFDEB2FA82F2002A40F09280A1EBE8
:101058000C014FEA1C471FFA8CFE0126200CB1FB3D
:10106800F7F307FB131140EA01410EFB03F0884236
:1010780008D91CEB010103F1FF3802D2884200F2C3
:10108800CB804346091AA4B2B1FBF7F007FB101155
:1010980044EA01440EFB00FEA64508D91CEB0404F3
:1010A80000F1FF3102D2A64500F2BB800846A4EB4E
:1010B8000E0440EA03409CE7C6F12007B34022FA39
:1010C80007FC4CEA030C20FA07F401FA06F31C4368
:1010D800F9404FEA1C4900FA06F3B1FBF9F8200C75
:1010E8001FFA8CFE09FB181140EA014108FB0EF0BB
:1010F800884202FA06F20BD91CEB010108F1FF3A0B
:1011080080F08880884240F28580A8F10208614416
:10111800091AA4B2B1FBF9F009FB101144EA014124
:1011280000FB0EFE8E4508D91CEB010100F1FF34CF
:101138006CD28E456AD90238614440EA0840A0FB67
:101148000294A1EB0E01A142C846A64656D353D03D
:101158005DB1B3EB080261EB0E0101FA07F722FA61
:1011680006F3F1401F43C5E9007100263146BDE88A
:10117800F087C2F12003D8400CFA02FC21FA03F3ED
:10118800914001434FEA1C471FFA8CFEB3FBF7F06E
:1011980007FB10360B0C43EA064300FB0EF69E4293
:1011A80004FA02F408D91CEB030300F1FF382FD22C
:1011B8009E422DD9023863449B1B89B2B3FBF7F6D4
:1011C80007FB163341EA034106FB0EF38B4208D9AD
:1011D8001CEB010106F1FF3816D28B4214D9023EEE
:1011E8006144C91A46EA004638E72E46284605E70C
:1011F8000646E3E61846F8E64B45A9D2B9EB0208DD
:1012080064EB0C0E0138A3E74646EAE7204694E76C
:101218004046D1E7D0467BE7023B614432E730469F
:1012280009E76444023842E7704700BF10B58AB046
:10123800002405940694079408940994214BDA6CC9
:1012480042F00402DA64DA6C02F004020192019AB4
:10125800DA6C42F08002DA64DA6C02F08002029200
:10126800029ADA6C42F00102DA64DA6C02F00102E6
:101278000392039ADA6C42F00202DA64DB6C03F040
:1012880002030493049B224620214FF0904001F072
:101298004DFC4FF4005305934FF404130693079441
:1012A80005A9094801F05EFB202305930123069355
:1012B8000794089405A94FF0904001F053FB0AB039
:1012C80010BD00BF001002400008004872B6FEE7DB
:1012D80008B50B480B4B03604FF4E1334360002320
:1012E8008360C36003610C2242618361C36103624E
:1012F800436200F06EFB00B908BDFFF7E7FF00BFCF
:101308009C0000200044004000B597B04422002112
:1013180005A8FEF7A5FF002300930193029303930A
:1013280004934FF4007001F00FFC20BB02230593D7
:101338004FF480720892402209920F931093012271
:1013480011920A221292072213921493159305A858
:1013580000F062FC88B90F23009303230193002354
:101368000293039304930421684600F08BFF30B97D
:1013780017B05DF804FBFFF7A9FFFFF7A7FFFFF71A
:10138800A5FF000008B500F07DFBFFF7BDFFFFF7E4
:101398004DFFFFF79DFF0248FFF722F8FEE700BF69
:1013A800842D0008FEE7FEE7FEE7FEE7FEE770474C
:1013B8007047704708B500F07BFB08BD82B00A4B48
:1013C8001A6E42F001021A661A6E02F001020092C9
:1013D800009A9A6D42F080529A659B6D03F0805393
:1013E8000193019B02B070470010024010B5A2B0F3
:1013F800044600211D911E911F9120912191682280
:1014080003A8FEF72DFF2268184B9A4201D022B09C
:1014180010BD0223039303A801F0D8F810BB144BA6
:101428009A6D42F400329A659A6D02F40032019284
:10143800019ADA6C42F00102DA64DB6C03F0010312
:101448000293029B0C231D9302231E9300231F93D8
:1014580003232093072321931DA94FF0904001F007
:1014680081FAD4E7FFF732FFD9E700BF0044004014
:1014780000100240026852E8003F23F4907342E8EB
:1014880000310029F6D1026802F1080353E8003F51
:1014980023F00103083242E800310029F3D1036E3A
:1014A800012B06D02023C0F8803000230366836612
:1014B8007047026852E8003F23F0100342E8003109
:1014C8000029F6D1EEE7000010B5044601688368EC
:1014D8000269134342691343C269134308688F4A78
:1014E800024013430B602268536823F44053E168B9
:1014F8000B435360A1692268894B9A4201D0236A41
:101508001943936823F430630B4393602368854A37
:10151800934223D0844A934234D0844A93424AD097
:10152800834A934259D07E4A934268D010227C491C
:101538008B4200F09580E069B0F5004F00F0C18063
:10154800082A00F22A81DFE812F0F9000F01E7000B
:1015580028011201280128012801150102F5584225
:10156800D2F8882002F00302032A09D8DFE802F043
:1015780002045C060122DAE70422D8E70822D6E74B
:101588001022D4E702F5E632D2F8882002F00C02E5
:101598000C2A0ED8DFE802F0070D0D0D090D0D0D10
:1015A8004A0D0D0D0B000022C1E70422BFE70822F7
:1015B800BDE71022BBE702F5E432D2F8882002F03A
:1015C8003002202A34D004D8A2B3102A34D10422FD
:1015D800ADE7302A32D10822A9E702F5E232D2F883
:1015E800882002F0C002802A2AD004D852B3402AA8
:1015F8002AD104229BE7C02A28D1082297E702F5BE
:10160800C832D2F8882002F44062B2F5006F1FD0C9
:1016180005D8FAB1B2F5806F1ED1042287E7B2F57A
:10162800406F1BD1082282E7022280E702227EE770
:1016380002227CE700227AE7102278E7102276E778
:10164800022274E7002272E7102270E710226EE788
:1016580002226CE700226AE7102268E7102266E798
:10166800082A00F28A80DFE802F008882A8827889A
:10167800888805004FF4004003E000F0CDFE002804
:101688007DD0626802EB420383427AD8B0EB023F16
:1016980079D8010E00025308C0184FF0000341F139
:1016A8000001FFF741FCA0F54072224B9A426CD82A
:1016B8002368D860002053E000F054FADFE71E48A2
:1016C800DFE7082A63D8DFE802F007210562246211
:1016D80062620B00184803E000F09EFE002858D014
:1016E8006268530803EB4000B0FBF2F0A0F110026F
:1016F8004FF6EF739A424ED883B223F00F03C0F32C
:10170800420018432368D860002029E000F096FEC4
:10171800E4E700F027FAE1E7074812E0F369FFEF92
:10172800008000400038014000440040004800406C
:10173800004C0040FFFC0F000024F40000F06CFE99
:1017480068B3636800EB5300B0FBF3F0A0F110023C
:101758004FF6EF739A4224D8236880B2D8600020ED
:101768000023A366E36610BD00F068FEE8E700F01A
:10177800F9F9E5E74FF40040E3E70120F0E700203E
:10178800EEE70120ECE70120EAE70120E8E7012085
:10179800E6E70020E4E70120E2E70120E0E7002097
:1017A800DEE70120DCE700BF436A13F0080F06D02C
:1017B8000268536823F40043416B0B435360436A48
:1017C80013F0010F06D00268536823F40033816ACE
:1017D8000B435360436A13F0020F06D00268536844
:1017E80023F48033C16A0B435360436A13F0040F38
:1017F80006D00268536823F48023016B0B435360BF
:10180800436A13F0100F06D00268936823F48053DC
:10181800816B0B439360436A13F0200F06D0026874
:10182800936823F40053C16B0B439360436A13F02E
:10183800400F0AD00268536823F48013016C0B43ED
:101848005360036CB3F5801F0BD0436A13F0800F0D
:1018580006D00268536823F40023816C0B4353605D
:1018680070470268536823F4C003416C0B4353600C
:10187800EBE72DE9F84305460F4616469946DDF88D
:1018880020802C68E46937EA04030CBF4FF0010C90
:101898004FF0000CB44532D1B8F1FF3FF1D000F061
:1018A80013F9A0EB090040452CD8B8F1000F2BD054
:1018B8002B681A6812F0040FE3D0DA6912F0080FE7
:1018C80011D1DA6912F4006FDBD04FF400621A62AA
:1018D8002846FFF7CFFD2023C5F88430002385F87C
:1018E800783003200CE008241C622846FFF7C2FD6C
:1018F800C5F88440002385F87830012000E00020F6
:10190800BDE8F8830320FBE70320F9E730B583B08F
:1019180004460023C0F8843000F0D6F80546226853
:10192800126812F0080F0FD123681B6813F0040F18
:1019380026D12023E367C4F8803000202066606643
:1019480084F8780003B030BD6FF07E4300930346FF
:1019580000224FF400112046FFF78BFF0028E3D048
:10196800226852E8003F23F0800342E80031002952
:10197800F6D12023E367002384F878300320E1E7D9
:101988006FF07E4300932B4600224FF480012046DF
:10199800FFF76FFF0028CCD0226852E8003F23F4FD
:1019A800907342E800310029F6D1226802F1080359
:1019B80053E8003F23F00103083242E800310029D0
:1019C800F3D12023C4F88030002384F87830032032
:1019D800B8E768B310B50446C36F03B32423E367BD
:1019E8002268136823F001031360636AE3B9204691
:1019F800FFF76AFD012811D02268536823F4904349
:101A080053602268936823F02A039360226813685E
:101A180043F0010313602046FFF778FF10BD80F8FC
:101A28007830FFF7E3FCD9E72046FFF7BDFEDEE795
:101A380001207047104B1B780BB90120704710B577
:101A480004464FF47A70B0FBF3F30C4A1068B0FB0D
:101A5800F3F001F00BF968B90F2C01D901200AE065
:101A6800002221464FF0FF3001F0C8F8044B1C60FB
:101A7800002000E0012010BD640000206C00002060
:101A88006800002010B5094A136843F48073136096
:101A9800032001F0A1F80020FFF7CCFF10B10124CA
:101AA800204610BD0446FFF789FCF9E700200240F4
:101AB800034B1B78034A11680B441360704700BF3F
:101AC8006400002024010020014B1868704700BF03
:101AD8002401002030B583B00446204B9B6D13F0E1
:101AE800805F0BD001F028F8B0F5007F17D0802C6C
:101AF8001FD82DD0702C2DD000211BE0174DAB6DB9
:101B080043F08053AB65AB6D03F080530193019BA9
:101B180001F012F8AB6D23F08053AB65E4E7802C3D
:101B280003D9A02C03D9022104E0002102E00121FD
:101B380000E003210A4A136823F007030B431360EC
:101B4800136803F007038B4206D1002003B030BDB1
:101B58000221EFE70121EDE70120F7E7001002403D
:101B680000200240284A9368D26802F0030213F06A
:101B78000C030AD00C2B06D0042B1FD0082B20D026
:101B88000020024610E0012AF6D11F4A126812F01E
:101B9800080F0CD11C4AD2F89420C2F303221B4927
:101BA80051F8222043B100200C2B0DD07047164A63
:101BB8001268C2F30312F2E71046F5E71448002250
:101BC800F2E714480022EFE70F4BDB6803F003034A
:101BD800022B16D0032B00D10E4A0B49C868C0F35C
:101BE8000210431CC868C0F3062002FB00F0B0FBDB
:101BF800F3F0CB68C3F3416301335B00B0FBF3F050
:101C0800D4E7034AE9E700BF00100240AC2D000802
:101C18000024F40000127A00002800F01C83F0B5BC
:101C280083B00446964B9D6805F00C05DE6806F007
:101C38000306036813F0100F5AD0E5B10C2D18D025
:101C4800A369002B00F0BB808D4A136843F00103A1
:101C58001360FFF739FF0746894B1B6813F0020F23
:101C680040F09A80FFF730FFC01B0228F4D9032008
:101C7800FCE2012EE4D1824B1B6813F0020F03D063
:101C8800A369002B00F0E982206A7D4B1B6813F0E2
:101C9800080F5BD07A4B1B6803F0F00398425CD8BE
:101CA800774B1A6842F008021A601A6822F0F002AC
:101CB800216A0A431A605A6822F47F42E16942EABB
:101CC80001225A60002D60D0FFF74CFF6C4B9B68D7
:101CD800C3F303136B4AD35C03F01F03D8406A4B6A
:101CE80018606A4B1868FFF7A5FE002840F0BE820E
:101CF800236813F0010F00F08180082D75D00C2D9A
:101D080071D06368B3F5803F00F09780B3F5A02FDA
:101D180000F099805A4B1A6822F480321A601A68C7
:101D280022F480221A606368002B00F09980FFF784
:101D3800CBFE0746524B1B6813F4003F5ED1FFF7FA
:101D4800C3FEC01B6428F5D903208FE24C4BD3F89F
:101D580094301B0903F0F003A0E7FFF7BBFE00284F
:101D680040F07D82464B1A6842F008021A601A68F1
:101D780022F0F002216A0A431A605A6822F47F426C
:101D8800E16942EA01225A609EE7206AFFF7A2FE53
:101D9800002899D0012069E2394B1A6842F00802FC
:101DA8001A601A6822F0F002216A0A431A605A6817
:101DB80022F47F42E16942EA01225A6098E7304AF8
:101DC800136823F001031360FFF77EFE07462C4BD0
:101DD8001B6813F0020F8BD0FFF776FEC01B02289A
:101DE800F5D9032042E2032E8BD1254B1B6813F44F
:101DF800003F03D06368002B00F03382236813F0A0
:101E0800020F58D0042D45D00C2D41D0E368002B8B
:101E180077D01B4A136843F480731360FFF754FEAE
:101E28000646174B1B6813F4806F61D1FFF74CFE11
:101E3800801B0228F5D9032018E2114A136843F4DD
:101E4800803313606FE703F18043A3F53C331A68CE
:101E580042F480221A601A6842F480321A6062E7FB
:101E6800FFF732FE0746064B1B6813F4003FC5D048
:101E7800FFF72AFEC01B6428F5D90320F6E100BF4E
:101E880000100240942D00086C000020680000201B
:101E9800022EBBD1A44B1B6813F4806F03D0E368F8
:101EA800002B00F0E081A04A536823F0FE4321692B
:101EB80043EA01635360236813F0080F4CD0636949
:101EC8009BB3994AD2F8943043F00103C2F8943096
:101ED800FFF7FAFD0646944BD3F8943013F0020F3F
:101EE8003AD1FFF7F1FD801B0228F4D90320BDE1A8
:101EF8008D4A536823F0FE43216943EA0163536026
:101F0800D9E7894A136823F480731360FFF7DCFD6F
:101F18000646854B1B6813F4806FCCD0FFF7D4FDC1
:101F2800801B0228F5D90320A0E17F4AD2F894301B
:101F380023F00103C2F89430FFF7C6FD06467A4B3A
:101F4800D3F8943013F0020F06D0FFF7BDFD801BC5
:101F58000228F4D9032089E1236813F0040F7AD00A
:101F6800714B9B6D13F0805F36D16F4B9A6D42F0C9
:101F780080529A659B6D03F080530193019B012663
:101F88006A4B1B6813F4807F28D0A368012B39D0D3
:101F9800052B3FD0644BD3F8902022F00102C3F800
:101FA8009020D3F8902022F00402C3F89020A36870
:101FB800002B3DD0FFF788FD07465B4BD3F89030E8
:101FC80013F0020F46D1FFF77FFDC01B41F28833A3
:101FD8009842F2D9032049E10026D1E7534A136811
:101FE80043F480731360FFF76FFD07464F4B1B6880
:101FF80013F4807FC9D1FFF767FDC01B0228F5D90C
:10200800032033E1484AD2F8903043F00103C2F884
:102018009030CCE7444BD3F8902042F00402C3F848
:102028009020D3F8902042F00102C3F89020BEE738
:10203800FFF74AFD07463C4BD3F8903013F0020FE8
:1020480008D0FFF741FDC01B41F288339842F2D90E
:1020580003200BE1E6B9236813F0200F35D0636A3B
:10206800E3B1314AD2F8983043F00103C2F898300E
:10207800FFF72AFD06462C4BD3F8983013F0020FD1
:1020880023D1FFF721FD801B0228F4D90320EDE0BE
:10209800254A936D23F080539365DCE7224AD2F8F2
:1020A800983023F00103C2F89830FFF70DFD06467B
:1020B8001D4BD3F8983013F0020F06D0FFF704FD3C
:1020C800801B0228F4D90320D0E0A36A002B00F07B
:1020D800CC80022B17D00C2D00F0CC80124A13684C
:1020E80023F080731360FFF7EFFC04460E4B1B6868
:1020F80013F0007F00F0A880FFF7E6FC001B022821
:10210800F4D90320B2E0084BDB6803F00301E26A6C
:1021180091420DD00C2D00F0AB80034B1B6813F0DF
:10212800806F2FD00120A1E0001002400070004015
:1021380003F07002216B0139B2EB011FEAD103F4FD
:10214800FE42616BB2EB012FE4D103F07842A16B40
:10215800B2EBC16FDED103F4C001E26B5208013A61
:10216800B1EB425FD6D103F0C063226C5208013A4A
:10217800B3EB426FCED1404B1B6813F0007F49D0C0
:10218800002073E03C4A136823F080731360FFF764
:102198009BFC0546384B1B6813F0007F06D0FFF701
:1021A80093FC401B0228F5D903205FE0324AD3682C
:1021B80032491940E36A206B013843EA0013606B27
:1021C80043EA0023E06B4008013843EA4053206C9F
:1021D8004008013843EA4063A06B43EAC0630B43FD
:1021E800D360136843F080731360D36843F080733F
:1021F800D360FFF769FC04461F4B1B6813F0007F90
:1022080006D1FFF761FC001B0228F5D903202DE059
:1022180000202BE0184B1A6842F080721A60DA68C6
:1022280042F08072DA60FFF74FFC0446124B1B68DD
:1022380013F0007F06D1FFF747FC031B022BF5D9EB
:10224800032013E0002011E00B4AD1680C4B0B402F
:10225800D36000200AE001207047012006E0012039
:1022680004E0012002E0012000E0002003B0F0BDFE
:102278000120FBE70120F9E7001002408C809D0156
:10228800FCFFEEFE002800F0AF8070B50D46044656
:10229800594B1B6803F007038B420BD2564A13684D
:1022A80023F007030B431360136803F007038B4203
:1022B80040F09C80236813F0020F0CD0A2684F4BAB
:1022C8009B6803F0F0039A4205D94C498B6823F0C8
:1022D800F0031A438A60236813F0010F39D063684A
:1022E800032B09D0022B26D063BB444A126812F094
:1022F800020F06D1012076E0404A126812F0007FF2
:1023080076D03E498A6822F0030213438B60FFF7B8
:10231800DBFB0646394B9B6803F00C036268B3EBA2
:10232800820F16D0FFF7D0FB801B41F2883398420A
:10233800F0D9032057E0314A126812F4003FE0D187
:10234800012050E02D4A126812F4806FD9D1012083
:1023580049E0236813F0020F0CD0A268274B9B6852
:1023680003F0F0039A4205D224498B6823F0F00366
:102378001A438A60204B1B6803F00703AB420AD953
:102388001D4A136823F007032B431360136803F0F7
:102398000703AB422ED1236813F0040F06D0174A67
:1023A800936823F4E063E1680B439360236813F0B8
:1023B800080F07D0114A936823F46053216943EA50
:1023C800C1039360FFF7CEFB0C4B9B68C3F3031369
:1023D8000B4AD35C03F01F03D8400A4B18600A4B22
:1023E8001868FFF727FB70BD012070470120FAE746
:1023F8000120F8E70120F6E7002002400010024023
:10240800942D00086C00002068000020014B18681B
:10241800704700BF6C00002008B5FFF7F7FF054BB9
:102428009B68C3F30223044AD35C03F01F03D8401C
:1024380008BD00BF00100240A42D000808B5FFF732
:10244800E5FF054B9B68C3F3C223044AD35C03F042
:102458001F03D84008BD00BF00100240A42D00088B
:10246800F8B504460F46584BDB6813F0030F18D035
:10247800554BDB6803F003030268934202D0012541
:102488002846F8BD002A00F09D804F4BDB68C3F357
:10249800021301334268934201D00125F0E7002579
:1024A80009E00368022B56D0032B5BD0012B41D0E7
:1024B8000125002DE4D1444A136823F0806313609A
:1024C800FFF702FB0646404B1B6813F0006F05D070
:1024D800FFF7FAFA831B022BF5D90325002DCFD17C
:1024E800002F4DD138490B6923F0784323F4FE437C
:1024F800A068E268D20642EA002213430B61324A1E
:10250800136843F080631360FFF7DEFA06462E4B2C
:102518001B6813F0006F05D1FFF7D6FA831B022B57
:10252800F5D90325002DABD1274A1369A1690B43BF
:102538001361A5E7244A126812F0020F1ED0224840
:10254800C26822F073026168013943EA0113134338
:10255800C3600025ADE71C4A126812F4806FEED103
:102568000125A6E7184A126812F4003FE7D1164A77
:10257800126812F4802FE2D101259AE7012598E725
:10258800012F0FD01048026922F0C06222F4FE42E7
:10259800A16863695B08013B5B0643EA01231343B7
:1025A8000361ACE70848026922F4C00222F4FE4243
:1025B800A16823695B08013B5B0543EA01231343D8
:1025C80003619CE701255BE7001002402DE9F0411B
:1025D80082B00446036813F4006F25D0C36CB3F5CA
:1025E800000F06D0B3F5400F12D04BB10126374685
:1025F8001CE0444AD36843F48033D360002708E0E2
:1026080000210430FFF72CFF074610B106460DE005
:1026180000273C4AD2F8883023F44003E16C0B438E
:10262800C2F88830002601E000263746236813F4F4
:10263800003F70D0334B9B6D13F0805F4CD1314B12
:102648009A6D42F080529A659B6D03F08053019316
:10265800019B4FF001082C4A136843F48073136000
:10266800FFF732FA0546284B1B6813F4807F05D123
:10267800FFF72AFA401B0228F5D90327002F45D176
:10268800204BD3F8903013F4407315D0626E9A4201
:1026980012D01C4AD2F8903023F44073D2F890102C
:1026A80041F48031C2F89010D2F8901021F48031B2
:1026B800C2F89010C2F8903013F0010F0FD1002F1C
:1026C80040F016810F4AD2F8903023F44073616EBF
:1026D8000B43C2F890301AE04FF00008BBE7FFF751
:1026E800F3F90546074BD3F8903013F0020FE6D103
:1026F800FFF7EAF9401B41F288339842F2D90327E1
:10270800DDE700BF00100240007000403E46B8F10F
:10271800000F40F0EF80236813F0010F08D0904AB3
:10272800D2F8883023F00303216A0B43C2F88830BB
:10273800236813F0020F08D0894AD2F8883023F0B2
:102748000C03616A0B43C2F88830236813F0040F46
:1027580008D0834AD2F8883023F03003A16A0B43AB
:10276800C2F88830236813F0080F08D07C4AD2F8E2
:10277800883023F0C003E16A0B43C2F8883023682D
:1027880013F0200F08D0764AD2F8883023F440633B
:10279800216B0B43C2F88830236813F4007F08D0FC
:1027A8006F4AD2F8883023F44023616C0B43C2F897
:1027B8008830236813F4806F08D0694AD2F88830CB
:1027C80023F44013A16C0B43C2F88830236813F03C
:1027D800400F08D0624AD2F8883023F44053616B26
:1027E8000B43C2F88830236813F0800F08D05C4A86
:1027F800D2F8883023F44043A16B0B43C2F88830E9
:10280800236813F4807F08D0554AD2F8883023F41F
:102818004033E16B0B43C2F88830236813F4801F00
:1028280008D04F4AD2F89C3023F00303216C0B43A5
:10283800C2F89C30236813F4005F0FD0484AD2F8DE
:10284800883023F04063216D0B43C2F88830236D34
:10285800B3F1006F54D0B3F1806F56D0236813F4EE
:10286800002F0FD03E4AD2F8883023F04063616DC4
:102878000B43C2F88830636DB3F1006F4DD0B3F1EC
:10288800806F4FD0236813F4802F0FD0344AD2F8CA
:10289800883023F04063A16D0B43C2F88830A36DE4
:1028A800B3F1006F46D0B3F1806F48D0236813F4BA
:1028B800804F0CD02A4AD2F8883023F04053E16D7B
:1028C8000B43C2F88830E36DB3F1805F3FD02368D3
:1028D80013F4803F08D0224AD2F8883023F000430E
:1028E800216E0B43C2F88830304602B0BDE8F08153
:1028F8003E460CE71A4A936D23F0805393650AE726
:10290800D36843F48013D360A8E70121201DFFF7A3
:10291800A7FD0028A2D00646A0E7D36843F4801399
:10292800D360AFE70121201DFFF79AFD0028A9D049
:102938000646A7E7D36843F48013D360B6E70121BE
:10294800201DFFF78DFD0028B0D00646AEE7022116
:10295800201DFFF785FD0028B9D00646B7E700BF60
:1029680000100240F0B583B0002362E085685E0085
:102978000324B44025EA0405CC68B4402C438460A1
:10298800446824EA0C0C4C68C4F300149C4044EAE4
:102998000C0444605EE0DD08083550F8256003F05B
:1029A80007044FEA840C0F2404FA0CF426EA040EF8
:1029B8000C6904FA0CF444EA0E0440F8254060E07F
:1029C800042400E0002404FA0EF42C430CF1020C59
:1029D800524D45F82C40524CA568D44325EA0206CE
:1029E8004F6817F4801F01D042EA05064C4DAE60CF
:1029F800ED6804EA05064F6817F4001F01D042EAA3
:102A08000506474DEE606D6804EA05064F6817F441
:102A1800003F01D042EA0506414D6E602D682C400A
:102A28004E6816F4803F01D042EA05043C4A14601F
:102A380001330A6832FA03F46ED04FF0010C0CFA35
:102A480003FC1CEA0202F3D04C6804F00304013CC6
:102A5800012C8BD94C6804F00304032C0CD0C468F7
:102A68005D004FF0030C0CFA05FC24EA0C0C8C6892
:102A7800AC4044EA0C04C4604C6804F00304022C23
:102A880089D004684FEA430E4FF0030C0CFA0EFC91
:102A980024EA0C0C4C6804F0030404FA0EF444EA2B
:102AA8000C0404604C6814F4403FC1D01D4C256EE2
:102AB80045F001052566246E04F001040194019C8B
:102AC8004FEA930C0CF10205144C54F8255003F00E
:102AD80003044FEA840E0F2404FA0EF425EA0405D1
:102AE800B0F1904F3FF46EAF0F4CA0420ED004F5FA
:102AF8008064A0420CD004F58064A0420AD004F59A
:102B08008064A0423FF45CAF07245CE701245AE7E5
:102B1800022458E7032456E703B0F0BD0000014043
:102B28000004014000100240000400480AB181611D
:102B38007047816270470000024B186800F4C0605B
:102B4800704700BF00700040B0F5007F0FD01F4BEA
:102B58001B6803F4C063B3F5806F34D01B4A136855
:102B680023F4C06343F48063136000207047174B5D
:102B78001B6803F4C063B3F5007F20D0134A1368C1
:102B880023F4C06343F400731360114B1B683222B3
:102B980002FB03F30F4AA2FB03239B0C013300E063
:102BA800013B0A4A526912F4806F01D0002BF7D119
:102BB800064B5B6913F4806F03D100207047002037
:102BC8007047032070470020704700BF0070004026
:102BD8006C00002083DE1B43074AD36823F4E063BC
:102BE8001B041B0C000200F4E060034343F0BF63C6
:102BF80043F40033D360704700ED00E000B5194B93
:102C0800DB68C3F30223C3F1070CBCF1040F28BF30
:102C18004FF0040C03F1040EBEF1060F18D9033B64
:102C28004FF0FF3E0EFA0CFC21EA0C0199400EFA17
:102C380003F322EA0303194300280BDB0901C9B295
:102C480000F1604000F5614080F800135DF804FB76
:102C58000023E5E700F00F000901C9B2024B19543F
:102C6800F4E700BF00ED00E014ED00E00138B0F13A
:102C7800807F0BD24FF0E0235861054AF02182F89B
:102C880023100020986107221A61704701207047BD
:102C980000ED00E0034AD2F8883043F47003C2F82C
:102CA8008830704700ED00E0DFF834D0FFF7F2FF1E
:102CB8000C480D490D4A002302E0D458C45004338F
:102CC800C4188C42F9D30A4A0A4C002301E0136065
:102CD8000432A242FBD3FDF79FFAFEF753FBFEE74F
:102CE800008002200000002070000020F82D00085D
:102CF8007000002028010020FEE70000F8B500BFA2
:102D0800F8BC08BC9E467047F8B500BFF8BC08BCC4
:082D18009E4670470000000018
:102D2000040000200000000000000000000000007F
:102D30000000000000000000000000000000000093
:102D40000000000000000000000000000000000083
:102D50000000000000000000000000000000000073
:102D60000000000000000000000000000000000063
:102D70000000000000000000000000000000000053
:102D80000000000048656C6C6F20576F726C642106
:102D90000000000000000000000000000102030429
:102DA000060708090000000001020304A0860100D4
:102DB000400D0300801A060000350C0040420F0051
:102DC00080841E0000093D0000127A000024F400F7
:102DD00000366E010048E801006CDC0200000000D3
:082DE00080E1FF7F010000000B
:082DE8000102000800000000D8
:082DF000D901000800000000F9
:102DF8000400002000000000642D0008442D000895
:102E0800242D000800000000000000000000000061
:102E180000000000000000000000000000000000AA
:102E2800000000000000000000000000000000009A
:102E3800000000000000000000000000000000008A
:102E4800000000000000000000000000000000007A
:102E580000000000010000001000000000093D0013
:0400000508002CB112
:00000001FF
